{
  "contractName": "splitter",
  "abi": [
    {
      "constant": true,
      "inputs": [
        {
          "name": "",
          "type": "address"
        }
      ],
      "name": "balance",
      "outputs": [
        {
          "name": "",
          "type": "uint256"
        }
      ],
      "payable": false,
      "stateMutability": "view",
      "type": "function"
    },
    {
      "anonymous": false,
      "inputs": [
        {
          "indexed": false,
          "name": "value1",
          "type": "uint256"
        }
      ],
      "name": "rightValue",
      "type": "event"
    },
    {
      "anonymous": false,
      "inputs": [
        {
          "indexed": true,
          "name": "from",
          "type": "address"
        },
        {
          "indexed": true,
          "name": "_one",
          "type": "address"
        },
        {
          "indexed": true,
          "name": "_two",
          "type": "address"
        },
        {
          "indexed": false,
          "name": "value",
          "type": "uint256"
        }
      ],
      "name": "Balancesplittet",
      "type": "event"
    },
    {
      "anonymous": false,
      "inputs": [
        {
          "indexed": true,
          "name": "from",
          "type": "address"
        },
        {
          "indexed": false,
          "name": "value2",
          "type": "uint256"
        }
      ],
      "name": "WithdrawLog",
      "type": "event"
    },
    {
      "constant": false,
      "inputs": [
        {
          "name": "_one",
          "type": "address"
        },
        {
          "name": "_two",
          "type": "address"
        }
      ],
      "name": "split",
      "outputs": [],
      "payable": true,
      "stateMutability": "payable",
      "type": "function"
    },
    {
      "constant": false,
      "inputs": [],
      "name": "withdrawTheSplit",
      "outputs": [
        {
          "name": "done",
          "type": "bool"
        }
      ],
      "payable": false,
      "stateMutability": "nonpayable",
      "type": "function"
    }
  ],
  "bytecode": "0x608060405234801561001057600080fd5b506108dc806100206000396000f3fe6080604052600436106100345760003560e01c80630f2c932914610039578063e3d670d71461009d578063f3fac8b614610102575b600080fd5b61009b6004803603604081101561004f57600080fd5b81019080803573ffffffffffffffffffffffffffffffffffffffff169060200190929190803573ffffffffffffffffffffffffffffffffffffffff169060200190929190505050610131565b005b3480156100a957600080fd5b506100ec600480360360208110156100c057600080fd5b81019080803573ffffffffffffffffffffffffffffffffffffffff1690602001909291905050506105bc565b6040518082815260200191505060405180910390f35b34801561010e57600080fd5b506101176105d4565b604051808215151515815260200191505060405180910390f35b81818073ffffffffffffffffffffffffffffffffffffffff168273ffffffffffffffffffffffffffffffffffffffff1614156101b8576040517f08c379a00000000000000000000000000000000000000000000000000000000081526004018080602001828103825260218152602001806108906021913960400191505060405180910390fd5b8173ffffffffffffffffffffffffffffffffffffffff163373ffffffffffffffffffffffffffffffffffffffff161415801561022057508073ffffffffffffffffffffffffffffffffffffffff163373ffffffffffffffffffffffffffffffffffffffff1614155b610292576040517f08c379a000000000000000000000000000000000000000000000000000000000815260040180806020018281038252601f8152602001807f7468652073656e6465722063616e2774206265206120726563697069656e740081525060200191505060405180910390fd5b600073ffffffffffffffffffffffffffffffffffffffff168273ffffffffffffffffffffffffffffffffffffffff16141580156102fc5750600073ffffffffffffffffffffffffffffffffffffffff168173ffffffffffffffffffffffffffffffffffffffff1614155b61036e576040517f08c379a000000000000000000000000000000000000000000000000000000000815260040180806020018281038252601a8152602001807f746865206164647265737365732063616e27742062652030783000000000000081525060200191505060405180910390fd5b600034116103e4576040517f08c379a00000000000000000000000000000000000000000000000000000000081526004018080602001828103825260168152602001807f7a65726f2063616e27742062652073706c69747465640000000000000000000081525060200191505060405180910390fd5b60006103fa60023461075290919063ffffffff16565b90507f40e6b702a7930b08f3634b5696adea792f0c1a4093c74c5d025a2954f8bdd0e0816040518082815260200191505060405180910390a18373ffffffffffffffffffffffffffffffffffffffff168573ffffffffffffffffffffffffffffffffffffffff163373ffffffffffffffffffffffffffffffffffffffff167f3300cfb01803d08882b4ad75e6b57a9c47b1384db35369d1dc7334c5ded7b742846040518082815260200191505060405180910390a4806000808773ffffffffffffffffffffffffffffffffffffffff1673ffffffffffffffffffffffffffffffffffffffff16815260200190815260200160002054016000808773ffffffffffffffffffffffffffffffffffffffff1673ffffffffffffffffffffffffffffffffffffffff16815260200190815260200160002081905550806000808673ffffffffffffffffffffffffffffffffffffffff1673ffffffffffffffffffffffffffffffffffffffff16815260200190815260200160002054016000808673ffffffffffffffffffffffffffffffffffffffff1673ffffffffffffffffffffffffffffffffffffffff168152602001908152602001600020819055505050505050565b60006020528060005260406000206000915090505481565b6000806000803373ffffffffffffffffffffffffffffffffffffffff1673ffffffffffffffffffffffffffffffffffffffff16815260200190815260200160002054905060008111610671576040517f08c379a000000000000000000000000000000000000000000000000000000000815260040180806020018281038252602d815260200180610863602d913960400191505060405180910390fd5b60008060003373ffffffffffffffffffffffffffffffffffffffff1673ffffffffffffffffffffffffffffffffffffffff168152602001908152602001600020819055503373ffffffffffffffffffffffffffffffffffffffff167fe3e9839feffe8b09968afc53bb5d9e159acf58162773c4b2c26f942cab6f3339826040518082815260200191505060405180910390a23373ffffffffffffffffffffffffffffffffffffffff166108fc829081150290604051600060405180830381858888f19350505050158015610749573d6000803e3d6000fd5b50600191505090565b600061079483836040518060400160405280601a81526020017f536166654d6174683a206469766973696f6e206279207a65726f00000000000081525061079c565b905092915050565b60008083118290610848576040517f08c379a00000000000000000000000000000000000000000000000000000000081526004018080602001828103825283818151815260200191508051906020019080838360005b8381101561080d5780820151818401526020810190506107f2565b50505050905090810190601f16801561083a5780820380516001836020036101000a031916815260200191505b509250505060405180910390fd5b50600083858161085457fe5b04905080915050939250505056fe41206869676865722062616c616e6365207468616e207a65726f2c2069732061207072657265717569736974657468652072656370697069656e74732063616e2774206265207468652073616d65a165627a7a723058208afe0deb1ff57638a5f463aaecbcb191f69714cc559c03b4cf23993f181da2760029",
  "source": "//I think i got some issues with the compiler version..\r\npragma solidity ^0.5.8;\r\n\r\n//for the correct math with ether/wei\r\n//got the safemath library from openzeppelin-contracts : https://github.com/OpenZeppelin/openzeppelin-contracts/blob/master/contracts/math/SafeMath.sol\r\nimport \"./safemath.sol\";\r\n\r\ncontract splitter{\r\n    //using the library\r\n    using SafeMath for uint;\r\n   // using safemath for uint;\r\n\r\n    //saving the addresses into a mapping\r\n    mapping(address => uint) public balance;\r\n\r\n    //setting up the right addresses on this contract\r\n    modifier CorrectRecipients(address _one, address _two){\r\n       //some guy could go in with the same address\r\n        require(_one != _two, \"the recpipients can't be the same\");\r\n        //ALice isn't allowed to get money\r\n        require(msg.sender != _one && msg.sender != _two, \"the sender can't be a recipient\");\r\n        //Fake addresses are not allowed\r\n        require(_one != address(0x0) && _two != address(0x0), \"the addresses can't be 0x0\");\r\n        _;\r\n    }\r\n\r\n    //just an event for showing the right value splittet in transactionlog\r\n    event rightValue(\r\n        uint value1\r\n        );\r\n\r\n    // Log who is sending, who are the recipients, which amount will be splittet\r\n    event Balancesplittet(\r\n        address indexed from,\r\n        address indexed _one,\r\n        address indexed _two,\r\n        uint value\r\n        );\r\n    //record who is withdrawing ether/wei\r\n    event WithdrawLog(\r\n        address indexed from,\r\n        uint value2\r\n        );\r\n\r\n    //setting the function which splits the ether\r\n    function split(address _one, address _two) public payable CorrectRecipients(_one, _two){\r\n        //defining balance as the value sended by the messenger\r\n\r\n        //the value must be bigger than zero\r\n        require(msg.value > 0, \"zero can't be splitted\");\r\n\r\n        //value mod 2 == 0; might be a useful requirement?\r\n        //require(msg.value %2 == 0, \"error %2\");\r\n\r\n        //division with safemath\r\n        uint tvalue = msg.value.div(2);\r\n        //logging the value\r\n        emit rightValue(tvalue);\r\n        //using in event for logging all participants\r\n        emit Balancesplittet(msg.sender, _one, _two, tvalue);\r\n        //adding the value to account _one and _two\r\n        balance[_one] = balance[_one] + tvalue;\r\n        balance[_two] = balance[_two] + tvalue;\r\n\r\n    }\r\n    //Let the user withdraw their ether\r\n    //withdraw is a useful function because only the recipients are allowed to take the ether once!\r\n    function withdrawTheSplit() public returns(bool done){\r\n        //saving a local variable\r\n        uint withdraw = balance[msg.sender];\r\n        //it must be bigger than zero\r\n        require(withdraw > 0, \"A higher balance than zero, is a prerequisite\");\r\n        //the balance set to 0 because when calling again the balance would be bigger\r\n        balance[msg.sender] = 0;\r\n        //logging the Withdraw\r\n        emit WithdrawLog(msg.sender, withdraw);\r\n        //transferring the money to the accounts\r\n        msg.sender.transfer(withdraw);\r\n        return true;\r\n    }\r\n\r\n}\r\n",
  "sourcePath": "/home/vagrant/DAPPS/splitter/contracts/splitter.sol",
  "compiler": {
    "name": "solc",
    "version": "0.5.8+commit.23d335f2.Emscripten.clang"
  },
  "schemaVersion": "3.0.10",
  "updatedAt": "2020-03-24T14:53:37.302Z",
  "devdoc": {
    "methods": {}
  },
  "userdoc": {
    "methods": {}
  }
}